:100000000C9434000C9451000C9451000C94510049
:100010000C9451000C9451000C9451000C9451001C
:100020000C9451000C9451000C9451000C948800D5
:100030000C9451000C9451000C9499000C94A8005D
:100040000C9451000C9451000C9451000C945100EC
:100050000C9451000C9451000C9451000C945100DC
:100060000C9451000C94510011241FBECFEFD8E026
:10007000DEBFCDBF11E0A0E0B1E0EEEFF9E002C0DD
:1000800005900D92AA31B107D9F721E0AAE1B1E0BC
:1000900001C01D92AF3AB207E1F70E9421010C9412
:1000A000FD040C94000078948AB184638AB984B109
:1000B000806C84B9209A0E94E602E9EAF1E084E0CB
:1000C00091E0958384839383828391838083EAE79D
:1000D000F0E0808187608083808180688083ECE7A6
:1000E000F0E080818064808389E698E190938900C4
:1000F00080938800E1E8F0E08081836080838081E4
:1001000088608083EFE6F0E08081826080830895DC
:100110001F920F920FB60F9211248F9380911A01A4
:100120008F5F80931A018F910F900FBE0F901F90D9
:1001300018951F920F920FB60F9211248F938091F2
:10014000A60187BD8F910F900FBE0F901F9018953D
:100150001F920F920FB60F9211248F93809170010E
:1001600088BD8F910F900FBE0F901F901895EAE7F2
:10017000F0E0808180648083808186FDFDCF0895DA
:10018000EF92FF920F931F93CF93DF93CCE7D0E0D2
:1001900081E088838881806488830E94B7000F2E65
:1001A000F8E7EF2EF12CF02DF701808190E090938D
:1001B000A5018093A40109E710E0F8012081809156
:1001C000A4019091A501922B9093A5018093A40185
:1001D00086E088838881806488830E94B700F70165
:1001E000808190E09093A8018093A701F80120817D
:1001F0008091A7019091A801922B9093A8018093E0
:10020000A70184E088838881806488830E94B70086
:10021000F701808190E090936E0180936D01F80169
:10022000208180916D0190916E01922B90936E01CF
:1002300080936D01DF91CF911F910F91FF90EF900F
:1002400008950E9453000E94CE020E94E0020E9484
:10025000E302569A86E98093A601559A809370012D
:10026000CDE70F2EFAE5AF2EF02D0F2EF8E7BF2EBB
:10027000F02D02E31CE8D6E980911A018823E1F30E
:100280000E94C0006091A7017091A801C090000178
:10029000D0900101E0900201F090030180E090E035
:1002A0000E942C04A70196010E948D041816BCF52B
:1002B0006091A4017091A501C0900001D09001014E
:1002C000E0900201F090030180E090E00E942C0495
:1002D000A70196010E94270488230CF560916D0107
:1002E00070916E01C0900001D0900101E090020178
:1002F000F090030180E090E00E942C04A701960199
:100300000E94270488235CF40E94E0020E94E3021A
:10031000559AD0937001569AD093A601ADCF6091B3
:100320006D0170916E01C0900001D0900101E090CC
:100330000201F090030180E090E00E942C04A701EC
:1003400096010E948D041816BCF56091A40170916D
:10035000A501C0900001D0900101E0900201F09051
:10036000030180E090E00E942C04A70196010E9406
:10037000270488230CF56091A7017091A801C09013
:100380000001D0900101E0900201F090030180E0B3
:1003900090E00E942C04A70196010E942704882364
:1003A0005CF40E94E002569A0093A6010E94E302C8
:1003B000559A1093700160CF6091A4017091A501CE
:1003C000C0900001D0900101E0900201F090030183
:1003D00080E090E00E942C04A70196010E948D0409
:1003E0001816BCF560916D0170916E01C09000010E
:1003F000D0900101E0900201F090030180E090E0D4
:100400000E942C04A70196010E94270488230CF562
:100410006091A7017091A801C0900001D0900101E6
:10042000E0900201F090030180E090E00E942C0433
:10043000A70196010E94270488235CF40E94E3022E
:10044000559A009370010E94E002569A1093A601FB
:1004500013CF6091A4017091A501C0900001D090CC
:100460000101E0900201F090030180E090E00E9421
:100470002C04A70196010E948D041816BCF560910A
:10048000A7017091A801C0900001D0900101E090F7
:100490000201F090030180E090E00E942C04A7018B
:1004A00096010E948D0418160CF560916D017091F3
:1004B0006E01C0900001D0900101E0900201F09027
:1004C000030180E090E00E942C04A70196010E94A5
:1004D000270488235CF40E94E302559AA0927001DD
:1004E0000E94E002569AB092A601C6CE60916D01BC
:1004F00070916E01C0900001D0900101E090020166
:10050000F090030180E090E00E942C04A701960186
:100510000E948D041816BCF56091A7017091A80186
:10052000C0900001D0900101E0900201F090030121
:1005300080E090E00E942C04A70196010E948D04A7
:1005400018160CF56091A4017091A501C0900001EE
:10055000D0900101E0900201F090030180E090E072
:100560000E942C04A70196010E94270488235CF4B2
:100570000E94E002569AA092A6010E94E302559AB8
:10058000B092700179CE0E94E002569AC093A60103
:100590000E94E302559AC09370016ECE84B58068C4
:1005A00084BD84B5806284BD84B5836084BD85B517
:1005B000826085BDEEE6F0E08081866080830895EC
:1005C0005F9A289808955A9A5C98089587E68093D0
:1005D000C40088E18093C1000895CF93C82F87306D
:1005E00069F42091AD013091AE0147E050E061E047
:1005F00070E082E191E00E9492040CC08A3019F40C
:100600008DE00E94ED02E0ECF0E0808185FFFDCFFF
:10061000C093C60080E090E0CF9108956F927F92E2
:100620008F929F92AF92BF92CF92DF92EF92FF9202
:100630000F931F93CF93DF9320916B0130916C0147
:10064000232B09F0DAC08C010F2EFBE18F2EF1E095
:100650009F2EF02DC0ECD0E00F2EF6ECCF2ED12C3B
:10066000F02D54010F2EFAE16F2EF1E07F2EF02DC8
:1006700088818823ECF7888184FDD2C0888183FD3E
:10068000D2C0F60180818D3011F08A3069F48AE0A1
:10069000F4018083B8010E94ED028BE191E0909318
:1006A0006C0180936B01A9C0893039F090EE980FEE
:1006B0009F3520F0803AB8F001C080E2FAE68F164C
:1006C000F1E09F0629F4B80187E00E94ED02D0CF47
:1006D00074019FEFE91AF90AF4018083B8010E94BE
:1006E000ED024701C5CF8231D1F130F4833009F4F6
:1006F0009DC08830E9F0BCCF873129F08F37C1F039
:10070000853179F0B5CFFBE18F16F1E09F0609F056
:1007100008F4AECFF40131978081803209F052C0E5
:10072000A7CF8BE1881681E0980609F098F5A0CF55
:100730009BE1891691E0990609F008F499CFB80178
:1007400088E00E94ED02B80180E20E94ED02B8014B
:1007500088E00E94ED02E1E08E1A910889CFB8018D
:100760008DE00E94ED02FBE18F16F1E09F0609F09B
:1007700008F47ECF0F2EFBE1EF2EF1E0FF2EF02DDF
:10078000B801F70181917F010E94ED028E149F0450
:10079000B9F76ECFB80188E00E94ED02B80180E29F
:1007A0000E94ED02B80188E00E94ED02F1E08F1A8C
:1007B00091088BE1881681E0980661F7F301319684
:1007C0004F0156CF7401F1E0EF1AF108B80188E04B
:1007D0000E94ED02B80180E20E94ED02B80188E0BB
:1007E0000E94ED024701EA14FB0409F441CFF7012E
:1007F00082917F01803251F73BCFE0916B01F09104
:100800006C01CF01019690936C0180936B01808104
:100810008A3021F410926C0110926B0190E008C0B4
:100820008EEF9FEF05C08FEF9FEF02C08FEF9FEF1E
:10083000DF91CF911F910F91FF90EF90DF90CF90BC
:10084000BF90AF909F908F907F906F9008950E947F
:10085000690408F481E00895E89409C097FB3EF428
:1008600090958095709561957F4F8F4F9F4F9923FD
:10087000A9F0F92F96E9BB279395F695879577957B
:100880006795B795F111F8CFFAF4BB0F11F460FF3B
:100890001BC06F5F7F4F8F4F9F4F16C0882311F093
:1008A00096E911C0772321F09EE8872F762F05C0A7
:1008B000662371F096E8862F70E060E02AF09A9542
:1008C000660F771F881FDAF7880F9695879597F937
:1008D0000895990F0008550FAA0BE0E8FEEF1616D1
:1008E0001706E807F907C0F012161306E407F50724
:1008F00098F0621B730B840B950B39F40A2661F098
:10090000232B242B252B21F408950A2609F4A1403A
:10091000A6958FEF811D811D08950E94690408F43A
:100920008FEF0895A0E0B0E0E8E9F4E00C94CC0487
:100930005B014A017901D90113962C9121FF1DC059
:10094000C0E0D0E0C815D905D9F08C016C01CA0C03
:10095000DB1CC8010C151D0571F00F5F1F4FD7017F
:100960001896ED91FC911997B701DC018C910995CE
:10097000892B79F305C02196E5CF80E090E001C096
:10098000CE01CDB7DEB7ECE00C94E8042F923F9295
:100990004F925F926F927F928F929F92AF92BF928F
:1009A000CF92DF92EF92FF920F931F93CF93DF933B
:1009B000CDB7DEB7CA1BDB0B0FB6F894DEBF0FBE98
:1009C000CDBF09942A88398848885F846E847D84E5
:1009D0008C849B84AA84B984C884DF80EE80FD80E7
:1009E0000C811B81AA81B981CE0FD11D0FB6F8945D
:0E09F000DEBF0FBECDBFED010895F894FFCF1E
:1009FE0000803B440000000300000000ED020E03E7
:0A0A0E0000002A72696E672A0A00D0
:00000001FF
