S017000052656420426F742050726F6A6563742E73726563B6
S11300000C9434000C9451000C9451000C94510045
S11300100C9451000C9451000C9451000C94510018
S11300200C9451000C9451000C9451000C948800D1
S11300300C9451000C9451000C949E000C94AD004F
S11300400C9451000C9451000C9451000C945100E8
S11300500C9451000C9451000C9451000C945100D8
S11300600C9451000C94510011241FBECFEFD8E022
S1130070DEBFCDBF11E0A0E0B1E0EEE8FBE002C0DE
S113008005900D92A833B107D9F721E0A8E3B1E0B8
S113009001C01D92A03DB207E1F70E9426010C9415
S11300A0C5050C94000078948AB184638AB984B13C
S11300B0806C84B9209A0E947601EAECF1E080E039
S11300C091E0958384839383828391838083EAE799
S11300D0F0E0808187608083808180688083ECE7A2
S11300E0F0E080818064808389E698E190938900C0
S11300F080938800E1E8F0E08081836080838081E0
S113010088608083EFE6F0E08081826080830895D8
S11301101F920F920FB60F9211248F938091390181
S11301208F5F80933901809138018F5F809338010C
S11301308F910F900FBE0F901F9018951F920F92E2
S11301400FB60F9211248F938091C70187BD8F91B1
S11301500F900FBE0F901F9018951F920F920FB61D
S11301600F9211248F9380918F0188BD8F910F90EE
S11301700FBE0F901F901895EAE7F0E0808180642D
S11301808083808186FDFDCF0895EF92FF920F93C7
S11301901F93CF93DF93CCE7D0E084E088838881FA
S11301A0806488830E94BC000F2EF8E7EF2EF12CA8
S11301B0F02DF701808190E09093C6018093C501F2
S11301C009E710E0F80120818091C5019091C601F2
S11301D0922B9093C6018093C50186E08883888121
S11301E0806488830E94BC00F701808190E0909332
S11301F0C9018093C801F80120818091C8019091C0
S1130200C901922B9093C9018093C80181E088832E
S11302108881806488830E94BC00F701808190E01B
S113022090938D0180938C01F801208180918C0141
S113023090918D01922B90938D0180938C01DF918D
S1130240CF911F910F91FF90EF9008950E9453005A
S11302500F2EFEE0CF2EF1E0DF2EF02DCAECD1E020
S11302600F2EF8E1EF2EF1E0FF2EF02D03E211E066
S11302700E94C5008091C5019091C6019F938F9300
S1130280DF92CF928B818F938A818F930E94B702E2
S113029080918C0190918D019F938F93FF92EF92A7
S11302A08B818F938A818F930E94B7028091C801BA
S11302B09091C9019F938F931F930F938B818F9379
S11302C08A818F930E94B7022FEF81EE94E0215030
S11302D080409040E1F700C000008DB79EB7429681
S11302E00FB6F8949EBF0FBE8DBFC2CF87E6809332
S11302F0C40088E18093C1000895CF93C82F87304C
S113030069F42091CE013091CF0147E050E061E0E3
S113031070E08FE291E00E94C9020CC08A3019F4A7
S11303208DE00E947D01E0ECF0E0808185FFFDCF4F
S1130330C093C60080E090E0CF9108956F927F92C1
S11303408F929F92AF92BF92CF92DF92EF92FF92E1
S11303500F931F93CF93DF9320918A0130918B01E8
S1130360232B09F0DAC08C010F2EFAE38F2EF1E073
S11303709F2EF02DC0ECD0E00F2EF6ECCF2ED12C1A
S1130380F02D54010F2EF9E36F2EF1E07F2EF02DA6
S113039088818823ECF7888184FDD2C0888183FD1D
S11303A0D2C0F60180818D3011F08A3069F48AE080
S11303B0F4018083B8010E947D018AE391E0909367
S11303C08B0180938A01A9C0893039F090EE980F8F
S11303D09F3520F0803AB8F001C080E2F9E88F162A
S11303E0F1E09F0629F4B80187E00E947D01D0CF97
S11303F074019FEFE91AF90AF4018083B8010E949D
S11304007D014701C5CF8231D1F130F4833009F445
S11304109DC08830E9F0BCCF873129F08F37C1F017
S1130420853179F0B5CFFAE38F16F1E09F0609F034
S113043008F4AECFF40131978081803209F052C0C4
S1130440A7CF8AE3881681E0980609F098F5A0CF33
S11304509AE3891691E0990609F008F499CFB80156
S113046088E00E947D01B80180E20E947D01B8010C
S113047088E00E947D01E1E08E1A910889CFB801DD
S11304808DE00E947D01FAE38F16F1E09F0609F0EA
S113049008F47ECF0F2EFAE3EF2EF1E0FF2EF02DBD
S11304A0B801F70181917F010E947D018E149F04A0
S11304B0B9F76ECFB80188E00E947D01B80180E2EF
S11304C00E947D01B80188E00E947D01F1E08F1A4D
S11304D091088AE3881681E0980661F7F301319662
S11304E04F0156CF7401F1E0EF1AF108B80188E02A
S11304F00E947D01B80180E20E947D01B80188E07C
S11305000E947D014701EA14FB0409F441CFF7017D
S113051082917F01803251F73BCFE0918A01F091C3
S11305208B01CF01019690938B0180938A01808186
S11305308A3021F410928B0110928A0190E008C055
S11305408EEF9FEF05C08FEF9FEF02C08FEF9FEFFD
S1130550DF91CF911F910F91FF90EF90DF90CF909B
S1130560BF90AF909F908F907F906F900895A0E080
S1130570B0E0EDEBF2E00C949E05AE01475F5F4FF7
S11305806F8178858D819E810E94FD02E2E00C944A
S1130590BA05A0E0B0E0EFECF2E00C9494055B0146
S11305A04A017901D90113962C9121FF1DC0C0E0A5
S11305B0D0E0C815D905D9F08C016C01CA0CDB1C3C
S11305C0C8010C151D0571F00F5F1F4FD701189658
S11305D0ED91FC911997B701DC018C910995892B58
S11305E079F305C02196E5CF80E090E001C0CE010B
S11305F0CDB7DEB7ECE00C94B005ABE0B0E0E3E0DF
S1130600F3E00C948E056C017B018A01FC011782D6
S11306101682838181FFCCC1CE0101963C01F60193
S11306209381F70193FD859193FF81917F01882345
S113063009F4BAC1853239F493FD859193FF819110
S11306407F01853229F4B60190E00E94F404E7CFDB
S1130650912C212C312CFFE1F315D8F08B3279F059
S113066038F4803279F08332A1F4232D20611DC047
S11306708D3261F0803369F4232D216016C0832DFF
S11306808260382EE32DE4603E2E2AC0F32DF860FC
S11306901DC037FC2DC020ED280F2A3040F08E32CB
S11306A0B9F436FC81C1232D2064322E19C036FEE4
S11306B006C08AE0989E200D1124922E11C0EAE013
S11306C02E9E200D1124222EF32DF0623F2E08C001
S11306D08C3621F4832D8068382E02C0883641F48C
S11306E0F70193FD859193FF81917F018111B3CF30
S11306F0982F9F7D9554933028F40C5F1F4F9FE3F0
S113070099830DC0833631F0833771F0833509F056
S113071059C021C0F801808189830E5F1F4F88244E
S11307208394912C530113C02801F2E04F0E511C05
S1130730F801A080B18036FE03C0692D70E002C0CC
S11307406FEF7FEFC5010E94E9044C018201F32D94
S1130750FF773F2E16C0280122E0420E511CF801FB
S1130760A080B18036FE03C0692D70E002C06FEF37
S11307707FEFC5010E94DE044C01F32DF0683F2E8B
S1130780820133FC1BC0822D90E088169906B0F4D8
S1130790B60180E290E00E94F4042A94F4CFF501BB
S11307A037FC859137FE81915F01B60190E00E948C
S11307B0F40421102A9421E0821A910881149104EE
S11307C071F7E8C0843611F0893641F5F80137FE37
S11307D007C060817181828193810C5F1F4F08C0C3
S11307E060817181072E000C880B990B0E5F1F4FDF
S11307F0F32DFF763F2E97FF09C090958095709555
S113080061957F4F8F4F9F4FF0683F2E2AE030E075
S1130810A3010E943005882E861845C0853731F41F
S1130820232D2F7EB22E2AE030E025C0932D997F10
S1130830B92E8F36C1F018F4883579F0B5C08037F9
S113084019F0883721F0B0C0E92FE061BE2EB4FE64
S11308500DC0FB2DF460BF2E09C034FE0AC0292F41
S11308602660B22E06C028E030E005C020E130E06A
S113087002C020E132E0F801B7FE07C06081718157
S1130880828193810C5F1F4F06C06081718180E07B
S113089090E00E5F1F4FA3010E943005882E86183A
S11308A0FB2DFF773F2E36FE0DC0232D2E7FA22E6B
S11308B0891458F434FE0BC032FC09C0832D8E7E9B
S11308C0A82E05C0B82CA32C03C0B82C01C0B92C89
S11308D0A4FE0FC0FE01E80DF11D8081803321F4D8
S11308E09A2D997EA92E09C0A2FE06C0B394B39492
S11308F004C08A2D867809F0B394A3FC11C0A0FE2D
S113090006C0B21488F4280C922C9B180EC0B214A2
S113091060F4B60180E290E00E94F404B394F7CF4F
S1130920B21418F42B1802C0982C212CA4FE10C069
S1130930B60180E390E00E94F404A2FE17C0A1FC7B
S113094003C088E790E002C088E590E0B6010CC0DF
S11309508A2D867859F0A1FE02C08BE201C080E2A4
S1130960A7FC8DE2B60190E00E94F404891438F4E7
S1130970B60180E390E00E94F4049A94F7CF8A943D
S1130980F301E80DF11D8081B60190E00E94F404AA
S11309908110F5CF222009F442CEB60180E290E026
S11309A00E94F4042A94F6CFF6018681978102C04E
S11309B08FEF9FEF2B96E2E10C94AA05FC010590C2
S11309C0615070400110D8F7809590958E0F9F1F4D
S11309D00895FC016150704001900110D8F7809592
S11309E090958E0F9F1F08950F931F93CF93DF93BE
S11309F0FB01238121FD03C08FEF9FEF2CC022FF59
S1130A0016C046815781248135814217530744F427
S1130A10A081B1819D012F5F3F4F318320838C934F
S1130A20268137812F5F3F4F3783268314C08B0184
S1130A30EC01FB010084F185E02D0995892BE1F699
S1130A40D80116968D919C911797019617969C93B1
S1130A508E931697CE01DF91CF911F910F91089538
S1130A60FA01AA27283051F1203181F1E8946F93DB
S1130A706E7F6E5F7F4F8F4F9F4FAF4FB1E03ED081
S1130A80B4E03CD0670F781F891F9A1FA11D680F1F
S1130A90791F8A1F911DA11D6A0F711D811D911D52
S1130AA0A11D20D009F468943F912AE0269F1124C7
S1130AB03019305D3193DEF6CF010895462F47702B
S1130AC0405D4193B3E00FD0C9F7F6CF462F4F7086
S1130AD0405D4A3318F0495D31FD4052419302D0E4
S1130AE0A9F7EACFB4E0A69597958795779567958A
S1130AF0BA95C9F700976105710508959B01AC018A
S1130B000A2E06945795479537952795BA95C9F7B0
S1130B10620F731F841F951FA01D08952F923F928B
S1130B204F925F926F927F928F929F92AF92BF92F9
S1130B30CF92DF92EF92FF920F931F93CF93DF93A5
S1130B40CDB7DEB7CA1BDB0B0FB6F894DEBF0FBE02
S1130B50CDBF09942A88398848885F846E847D844F
S1130B608C849B84AA84B984C884DF80EE80FD8051
S1130B700C811B81AA81B981CE0FD11D0FB6F894C7
S1110B80DEBF0FBECDBFED010895F894FFCF88
S1130B8E00000003000000007D019E0100004C6582
S1130B9E66743A2025640A0052696768743A2025FF
S1130BAE640A0043656E7465723A2025640A002A4D
S10B0BBE72696E672A0A000047
S9030000FC
