S017000052656420426F742050726F6A6563742E73726563B6
S11300000C9434000C9451000C9451000C94510045
S11300100C9451000C9451000C9451000C94510018
S11300200C9451000C9451000C9451000C943B021C
S11300300C9451000C9451000C944C020C945B02EF
S11300400C9451000C9451000C9451000C945100E8
S11300500C9451000C9451000C9451000C945100D8
S11300600C9451000C94510011241FBECFEFD8E022
S1130070DEBFCDBF11E0A0E0B1E0E2E4F1E102C0F7
S113008005900D92A832B107D9F721E0A8E2B1E0BA
S113009001C01D92AD3DB207E1F70E94D9020C9454
S11300A09F080C9400004F925F926F927F928F9200
S11300B09F92AF92BF92CF92DF92EF92FF92CF9333
S11300C0DF9300D000D0CDB7DEB76B017C01609127
S11300D0D5017091D60180E090E00E9410079B0149
S11300E0AC01C701B6010E94F6056B017C01609367
S11300F044017093450180934601909347012091F8
S113010038013091390140913A0150913B010E94EC
S1130110F7052B013C0160933801709339018093FA
S11301203A0190933B01209140013091410140916B
S1130130420150914301C701B6010E94F6054B01EB
S11301405C0160933C0170933D0180933E01909368
S11301503F01209108013091090140910A01509119
S11301600B01C701B6010E94C70769837A838B8399
S11301709C832091300130913101409132015091A2
S11301803301C301B2010E94C7079B01AC0169811D
S11301907A818B819C810E94F7052B013C0120917F
S11301A00401309105014091060150910701C501F8
S11301B0B4010E94C7079B01AC01C301B2010E94B4
S11301C0F7054B015C016093340170933501809312
S11301D0360190933701C0924001D0924101E092E0
S11301E04201F092430120E030E044EB52E40E94EB
S11301F0C20718166CF480E090E0A4EBB2E480939C
S1130200340190933501A0933601B093370116C0A1
S113021020E030E044EB52ECC501B4010E946306D7
S1130220882364F480E090E0A4EBB2EC8093340182
S113023090933501A0933601B09337010F900F903E
S11302400F900F90DF91CF91FF90EF90DF90CF90C0
S1130250BF90AF909F908F907F906F905F904F90E2
S113026008954F925F926F927F928F929F92AF9276
S1130270BF92CF92DF92EF92FF92CF936B017C01FA
S11302800E94DA069B012F5C3F4F2336310518F597
S11302908090000190900101A0900201B0900301B0
S11302A020E030E0A901C501B4010E94C20718167C
S11302B00CF045C02DEC3CEC4CE45DE3C501B4010D
S11302C00E94F6056093000170930101809302017E
S11302D09093030134C06B567F4F6B32714018F515
S11302E08090000190900101A0900201B090030160
S11302F020E030E040EA52E4C501B4010E94630604
S11303008823ECF42DEC3CEC4CEC5DE3C501B4012A
S11303100E94F7056093000170930101809302012C
S1130320909303010CC080E090E0A0EAB2E48093D3
S1130330000190930101A0930201B0930301C091C5
S11303401E0120E030E044EB52E4C701B6010E94F4
S113035068062B013C01C0900001D0900101E0909F
S11303600201F0900301A701960160E070E088ECBF
S113037092E40E94F6054B015C018C2F992781952C
S11303800CF49095BC01072E000C880B990B0E946D
S11303901207A30192010E94C707A70196010E94B8
S11303A0C707A50194010E94F70560932C0170937F
S11303B02D0180932E0190932F016C2FCC0F770B7E
S11303C0880B990B0E941207A30192010E94C70790
S11303D0A70196010E94C707A50194010E94F70591
S11303E0609328017093290180932A0190932B0133
S11303F0CF91FF90EF90DF90CF90BF90AF909F9000
S11304008F907F906F905F904F90089578948AB109
S113041084638AB984B1806C84B9209A0E94B5043B
S1130420E7EDF1E080E191E0958384839383828317
S113043091838083EAE7F0E0808187608083808114
S113044080688083ECE7F0E080818064808389E6C3
S113045098E19093890080938800E1E8F0E080813E
S113046083608083808188608083EFE6F0E0808110
S11304708260808308951F920F920FB60F92112409
S11304808F93809149018F5F809349018F910F90E1
S11304900FBE0F901F9018951F920F920FB60F92D8
S11304A011248F938091D40187BD8F910F900FBE3B
S11304B00F901F9018951F920F920FB60F92112450
S11304C08F9380919E0188BD8F910F900FBE0F90E6
S11304D01F901895EAE7F0E0808180648083808132
S11304E086FDFDCF0895453019F0463039F0089562
S11304F0559A0E94E10660939E010895569A0E94BF
S1130500E1066093D4010895EF92FF920F931F9335
S1130510CF93DF93CCE7D0E081E088838881806447
S113052088830E946A020F2EF8E7EF2EF12CF02D3B
S1130530F701808190E09093D3018093D20109E781
S113054010E0F8012081922B9093D3018093D20183
S113055086E088838881806488830E946A02F70128
S1130560808190E09093D6018093D501F801208199
S1130570922B9093D6018093D50184E0888388815F
S1130580806488830E946A02F701808190E09093DE
S11305909D0180939C01F8012081922B90939D01F1
S11305A080939C01DF91CF911F910F91FF90EF9069
S11305B00895CF93DF9300D000D0CDB7DEB70E946B
S11305C006020E949D040E94AF040E94B20446E009
S11305D060E070E08FE793E40E94730245E060E01E
S11305E070E08FE793E40E947302809148018823AE
S11305F0F1F380914901882309F449C00E948402DF
S113060080911E01181654F42091D2013091D30127
S11306102132334018F0819580931E0180911E0190
S1130620882354F420919C0130919D012132334060
S113063018F0819580931E0160910C0170910D0159
S113064080910E0190910F010E945300609134013A
S11306507091350180913601909137010E943101EA
S113066060912C0170912D0180912E0190912F01A8
S113067045E00E94730260912801709129018091E4
S11306802A0190912B0146E00E947302AECF809123
S11306904901882309F4A9CF0E9484026091D501FD
S11306A07091D60180E090E00E9410072B013C017C
S11306B0C0900C01D0900D01E0900E01F0900F015C
S11306C0A70196010E94C2071816B4F56091D201E1
S11306D07091D30180E090E00E9410079B01AC016F
S11306E0C701B6010E94C207181634F560919C0137
S11306F070919D0180E090E00E9410074B015C0125
S11307009B01AC01C701B6010E94C20718160CF088
S1130710F6C00E94AF040E94B20445E060E070E0BD
S11307208FE793E40E94730246E060E070E08FE795
S113073093E40E94730259CF60919C0170919D01D2
S113074080E090E00E9410074B015C019B01AC012A
S1130750C701B6010E94630688235CF56091D2014B
S11307607091D30180E090E00E9410079B01AC01DE
S1130770C701B6010E94C2071816DCF4A70196014E
S1130780C301B2010E94630688239CF40E94AF0453
S113079046E060E070E080EA92E40E9473020E9406
S11307A0B20445E060E070E08AE293E40E947302E0
S11307B01CCF6091D2017091D30180E090E00E943F
S11307C0100769837A838B839C839B01AC01C701E7
S11307D0B6010E946306882324F5A5019401C7018C
S11307E0B6010E94C207181634F5A7019601C30189
S11307F0B2010E94630688230CF095C00E94B204E3
S113080045E060E070E080EA92E40E9473020E9496
S1130810AF0446E060E070E08AE293E40E94730271
S1130820E4CE29813A814B815C81C701B6010E94E3
S11308306306882324F5A7019601C301B2010E942F
S1130840C2071816E4F4A5019401C701B6010E9479
S1130850C20718160CF05DC00E94B20445E060E0C7
S113086070E088EC92E40E9473020E94AF0446E0B8
S113087060E070E084E393E40E947302B6CEA501C5
S11308809401C701B6010E94630688232CF5A701D1
S11308909601C301B2010E94C2071816ECF4298123
S11308A03A814B815C81C701B6010E94C2071816C8
S11308B09CF40E94AF0446E060E070E088EC92E4AF
S11308C00E9473020E94B20445E060E070E084E399
S11308D093E40E94730289CE0E94AF0446E060E074
S11308E070E08FE793E40E9473020E94B20445E033
S11308F060E070E08FE793E40E94730276CEA50176
S11309009401C701B6010E94630688230CF436CF14
S113091050CFA5019401C701B6010E946306882344
S11309200CF4BDCFD9CFA7019601C301B2010E9437
S1130930C20718160CF0A3CF8FCF84B5806884BD8E
S113094084B5806284BD84B5836084BD85B58260CE
S113095085BDEEE6F0E080818660808308955F9A2D
S1130960289808955A9A5C98089587E68093C4005D
S113097088E18093C1000895CF93C82F873069F42C
S11309802091DB013091DC0147E050E061E070E050
S11309908FE191E00E9434080CC08A3019F48DE094
S11309A00E94BC04E0ECF0E0808185FFFDCFC093A1
S11309B0C60080E090E0CF9108956F927F928F926D
S11309C09F92AF92BF92CF92DF92EF92FF920F93DA
S11309D01F93CF93DF9320919A0130919B01232B96
S11309E009F0DAC08C010F2EFAE48F2EF1E09F2E6D
S11309F0F02DC0ECD0E00F2EF6ECCF2ED12CF02D44
S1130A0054010F2EF9E46F2EF1E07F2EF02D888132
S1130A108823ECF7888184FDD2C0888183FDD2C00D
S1130A20F60180818D3011F08A3069F48AE0F40196
S1130A308083B8010E94BC048AE491E090939B01F6
S1130A4080939A01A9C0893039F090EE980F9F35B0
S1130A5020F0803AB8F001C080E2F9E98F16F1E0A5
S1130A609F0629F4B80187E00E94BC04D0CF74012A
S1130A709FEFE91AF90AF4018083B8010E94BC04CB
S1130A804701C5CF8231D1F130F4833009F49DC0E0
S1130A908830E9F0BCCF873129F08F37C1F0853138
S1130AA079F0B5CFFAE48F16F1E09F0609F008F467
S1130AB0AECFF40131978081803209F052C0A7CFC4
S1130AC08AE4881681E0980609F098F5A0CF9AE4A4
S1130AD0891691E0990609F008F499CFB80188E0E5
S1130AE00E94BC04B80180E20E94BC04B80188E002
S1130AF00E94BC04E1E08E1A910889CFB8018DE010
S1130B000E94BC04FAE48F16F1E09F0609F008F491
S1130B107ECF0F2EFAE4EF2EF1E0FF2EF02DB80178
S1130B20F70181917F010E94BC048E149F04B9F7E0
S1130B306ECFB80188E00E94BC04B80180E20E9434
S1130B40BC04B80188E00E94BC04F1E08F1A91084B
S1130B508AE4881681E0980661F7F30131964F0123
S1130B6056CF7401F1E0EF1AF108B80188E00E9451
S1130B70BC04B80180E20E94BC04B80188E00E9471
S1130B80BC044701EA14FB0409F441CFF701829144
S1130B907F01803251F73BCFE0919A01F0919B01A4
S1130BA0CF01019690939B0180939A0180818A30B2
S1130BB021F410929B0110929A0190E008C08EEFEC
S1130BC09FEF05C08FEF9FEF02C08FEF9FEFDF9184
S1130BD0CF911F910F91FF90EF90DF90CF90BF9036
S1130BE0AF909F908F907F906F9008955058BB273F
S1130BF0AA270E940E060C9488070E947A0738F0F0
S1130C000E94810720F039F49F3F19F426F40C94D4
S1130C1077070EF4E095E7FB0C947107E92F0E9427
S1130C20990758F3BA17620773078407950720F0EA
S1130C3079F4A6F50C94BB070EF4E0950B2EBA2FAD
S1130C40A02D0B01B90190010C01CA01A0011124CE
S1130C50FF27591B99F0593F50F4503E68F11A167A
S1130C60F040A22F232F342F4427585FF3CF46950B
S1130C7037952795A795F0405395C9F77EF41F162D
S1130C80BA0B620B730B840BBAF09150A1F0FF0FF7
S1130C90BB1F661F771F881FC2F70EC0BA0F621FE3
S1130CA0731F841F48F4879577956795B795F795D3
S1130CB09E3F08F0B0CF9395880F08F09927EE0F68
S1130CC09795879508950E944D0708F481E008954B
S1130CD00E947C060C9488070E94810758F00E94A9
S1130CE07A0740F029F45F3F29F00C947107511101
S1130CF00C94BC070C9477070E94990768F3992316
S1130D00B1F3552391F3951B550BBB27AA27621703
S1130D107307840738F09F5F5F4F220F331F441F10
S1130D20AA1FA9F335D00E2E3AF0E0E832D0915044
S1130D305040E695001CCAF72BD0FE2F29D0660F31
S1130D40771F881FBB1F261737074807AB07B0E874
S1130D5009F0BB0B802DBF01FF2793585F4F3AF07A
S1130D609E3F510578F00C9471070C94BC075F3FCB
S1130D70E4F3983ED4F3869577956795B795F79500
S1130D809F5FC9F7880F911D9695879597F90895E8
S1130D90E1E0660F771F881FBB1F62177307840784
S1130DA0BA0720F0621B730B840BBA0BEE1F88F793
S1130DB0E09508950E94E1066894B1110C94BC0773
S1130DC008950E94A10788F09F5798F0B92F99279A
S1130DD0B751B0F0E1F0660F771F881F991F1AF022
S1130DE0BA95C9F714C0B13091F00E94BB07B1E0C5
S1130DF008950C94BB07672F782F8827B85F39F0C4
S1130E00B93FCCF3869577956795B395D9F73EF4BA
S1130E1090958095709561957F4F8F4F9F4F089562
S1130E20E89409C097FB3EF4909580957095619580
S1130E307F4F8F4F9F4F9923A9F0F92F96E9BB2736
S1130E409395F695879577956795B795F111F8CFB2
S1130E50FAF4BB0F11F460FF1BC06F5F7F4F8F4F1D
S1130E609F4F16C0882311F096E911C0772321F013
S1130E709EE8872F762F05C0662371F096E8862FAB
S1130E8070E060E02AF09A95660F771F881FDAF702
S1130E90880F9695879597F90895990F0008550F2F
S1130EA0AA0BE0E8FEEF16161706E807F907C0F0EC
S1130EB012161306E407F50798F0621B730B840BF4
S1130EC0950B39F40A2661F0232B242B252B21F4CE
S1130ED008950A2609F4A140A6958FEF811D811D6E
S1130EE0089597F99F6780E870E060E008959FEFA8
S1130EF080EC089500240A941616170618060906AD
S1130F00089500240A94121613061406050608957B
S1130F10092E0394000C11F4882352F0BB0F40F403
S1130F20BF2B11F460FF04C06F5F7F4F8F4F9F4F43
S1130F30089557FD9058440F551F59F05F3F71F0C5
S1130F404795880F97FB991F61F09F3F79F087952C
S1130F500895121613061406551FF2CF4695F1DFB5
S1130F6008C0161617061806991FF1CF8695710545
S1130F70610508940895E894BB2766277727CB0179
S1130F8097F908950E944D0708F48FEF08950E9481
S1130F90DA070C9488070E947A0738F00E948107C8
S1130FA020F0952311F00C9471070C947707112409
S1130FB00C94BC070E94990770F3959FC1F3950F99
S1130FC050E0551F629FF001729FBB27F00DB11DC9
S1130FD0639FAA27F00DB11DAA1F649F6627B00D59
S1130FE0A11D661F829F2227B00DA11D621F739F42
S1130FF0B00DA11D621F839FA00D611D221F749F50
S11310003327A00D611D231F849F600D211D822F96
S1131010762F6A2F11249F5750409AF0F1F08823BD
S11310204AF0EE0FFF1FBB1F661F771F881F9150EA
S11310305040A9F79E3F510580F00C9471070C9421
S1131040BC075F3FE4F3983ED4F3869577956795A4
S1131050B795F795E7959F5FC1F7FE2B880F911D14
S11310609695879597F90895A0E0B0E0EAE3F8E053
S11310700C946E085B014A017901D90113962C91F5
S113108021FF1DC0C0E0D0E0C815D905D9F08C01FE
S11310906C01CA0CDB1CC8010C151D0571F00F5F37
S11310A01F4FD7011896ED91FC911997B701DC01F8
S11310B08C910995892B79F305C02196E5CF80E0C1
S11310C090E001C0CE01CDB7DEB7ECE00C948A0805
S11310D02F923F924F925F926F927F928F929F9244
S11310E0AF92BF92CF92DF92EF92FF920F931F9332
S11310F0CF93DF93CDB7DEB7CA1BDB0B0FB6F894E3
S1131100DEBF0FBECDBF09942A88398848885F8422
S11311106E847D848C849B84AA84B984C884DF8093
S1131120EE80FD800C811B81AA81B981CE0FD11D77
S11311300FB6F894DEBF0FBECDBFED010895F8944D
S1051140FFCFDB
S11311420000A0420AD7A33CEC51B83D00002F4452
S11311520000000300000000BC04DD040000012ABA
S10B116272696E672A0A00009D
S9030000FC
