S017000052656420426F742050726F6A6563742E73726563B6
S11300000C9434000C9451000C9451000C94510045
S11300100C9451000C9451000C9451000C94510018
S11300200C9451000C9451000C9451000C94B502A2
S11300300C9451000C9451000C94C6020C94D502FB
S11300400C9451000C9451000C9451000C945100E8
S11300500C9451000C9451000C9451000C945100D8
S11300600C9451000C94510011241FBECFEFD8E022
S1130070DEBFCDBF11E0A0E0B1E0E4ECFFE002C0E0
S113008005900D92A432B107D9F721E0A4E2B1E0C2
S113009001C01D92AD3DB207E1F70E9477030C94B5
S11300A0E0070C9400004F925F926F927F928F92C0
S11300B09F92AF92BF92CF92DF92EF92FF92CF9333
S11300C0DF93CDB7DEB728970FB6F894DEBF0FBE27
S11300D0CDBF6B017C016091D5017091D60180E0A8
S11300E090E00E9451069B01AC01C701B6010E9439
S11300F037056093440170934501809346019093C2
S113010047016091440170914501809146019091AD
S11301104701209138013091390140913A015091C1
S11301203B010E9438056093380170933901809334
S11301303A0190933B016091440170914501809193
S11301404601909147012091400130914101409135
S11301504201509143010E94370560933C01709322
S11301603D0180933E0190933F01609104017091A1
S1130170050180910601909107012091440130917D
S1130180450140914601509147012D833E834F83A1
S113019058878090300190903101A0903201B09046
S11301A03301409038015090390160903A017090C9
S11301B03B01C0902C01D0902D01E0902E01F090D5
S11301C02F0120913C0130913D0140913E0150911D
S11301D03F0129833A834B835C832D813E814F8188
S11301E058850E9408076D837E838F839887A301B7
S11301F09201C501B4010E9408079B01AC016D8105
S11302007E818F8198850E9438054B015C0129818C
S11302103A814B815C81C701B6010E9408079B01AA
S1130220AC01C501B4010E94380560933401709398
S11302303501809336019093370180914401909168
S11302404501A0914601B0914701809340019093EC
S11302504101A0934201B093430160913401709134
S11302603501809136019091370120E030E044EB74
S113027052E40E94030718166CF480E090E0A4EBAB
S1130280B2E48093340190933501A0933601B09386
S113029037011CC0609134017091350180913601A1
S11302A09091370120E030E044EB52EC0E94A40529
S11302B0882364F480E090E0A4EBB2EC80933401F2
S11302C090933501A0933601B093370128960FB669
S11302D0F894DEBF0FBECDBFDF91CF91FF90EF90BA
S11302E0DF90CF90BF90AF909F908F907F906F9052
S11302F05F904F9008954F925F926F927F928F928A
S11303009F92AF92BF92CF92DF92EF92FF92CF93E0
S11303106B017C010E941B069B012F5C3F4F23361F
S1130320310538F56091000170910101809102015D
S11303309091030120E030E0A9010E940307181600
S11303400CF04FC060910001709101018091020195
S1130350909103012DEC3CEC4CE45DE30E943705E5
S11303606093000170930101809302019093030153
S113037038C06B567F4F6B32714038F56091000185
S113038070910101809102019091030120E030E01D
S113039040EA52E40E94A40588231CF56091000100
S11303A07091010180910201909103012DEC3CECCC
S11303B04CEC5DE30E9438056093000170930101E9
S11303C080930201909303010CC080E090E0A0EAC6
S11303D0B2E48093000190930101A0930201B093D1
S11303E00301C0911A0120E030E044EB52E4C7015C
S11303F0B6010E94A9056B017C0140900001509058
S113040001016090020170900301809000019090BE
S11304100101A0900201B09003018C2F99278195CE
S11304200CF49095BC01072E000C880B990B0E94CC
S11304305306A70196010E940807A30192010E9496
S113044008072B013C01A501940160E070E088ECF1
S113045092E40E9437059B01AC01C301B2010E94E2
S11304603805609328017093290180932A019093A1
S11304702B0160911A01409000015090010160909D
S11304800201709003018090000190900101A090FE
S11304900201B0900301062E000C770B880B990B18
S11304A00E945306A70196010E940807A301920126
S11304B00E9408076B017C01A501940160E070E0D3
S11304C088EC92E40E9437059B01AC01C701B60198
S11304D00E943805609324017093250180932601BE
S11304E090932701CF91FF90EF90DF90CF90BF9032
S11304F0AF909F908F907F906F905F904F900895F2
S113050078948AB184638AB984B1806C84B9209A5E
S11305100E94F603E7EDF1E08CE091E0958384839B
S11305209383828391838083EAE7F0E0808187600C
S11305308083808180688083ECE7F0E08081806440
S1130540808389E698E19093890080938800E1E8AC
S1130550F0E0808183608083808188608083EFE61F
S1130560F0E080818260808308951F920F920FB61D
S11305700F9211248F93809148018F5F80934801DB
S11305808F910F900FBE0F901F9018951F920F928E
S11305900FB60F9211248F938091D40187BD8F9150
S11305A00F900FBE0F901F9018951F920F920FB6C9
S11305B00F9211248F9380919E0188BD8F910F908B
S11305C00FBE0F901F901895EAE7F0E080818064D9
S11305D08083808186FDFDCF0895453019F0463033
S11305E099F00895559A20E030E048EC52E40E94D6
S11305F0A90520E030E04FE753E40E9408070E9479
S11306001B0660939E010895569A20E030E048EC62
S113061052E40E94A90520E030E04FE753E40E9431
S113062008070E941B066093D4010895EF92FF927D
S11306300F931F93CF93DF93CCE7D0E081E08883BF
S11306408881806488830E94E4020F2EF8E7EF2EED
S1130650F12CF02DF701808190E09093D3018093E9
S1130660D20109E710E0F80120818091D201909134
S1130670D301922B9093D3018093D20186E0888397
S11306808881806488830E94E402F701808190E07D
S11306909093D6018093D501F80120818091D501F2
S11306A09091D601922B9093D6018093D50184E04A
S11306B088838881806488830E94E402F7018081B2
S11306C090E090939C0180939B01F801208180919C
S11306D09B0190919C01922B90939C0180939B0190
S11306E0DF91CF911F910F91FF90EF9008950E9499
S11306F080020E94DE030E94F0030E94F30346E09E
S113070060E070E086E193E40E94ED0245E060E081
S113071070E086E193E40E94ED0280914801882311
S1130720E1F30E94160380911A01181664F4809173
S1130730D2019091D3018132934028F080911A0123
S1130740819580931A0180911A01882364F4809121
S11307509B0190919C018132934028F080911A0171
S1130760819580931A01609108017091090180912B
S11307700A0190910B010E94530060913401709121
S1130780350180913601909137010E947B0160917F
S113079028017091290180912A0190912B0145E053
S11307A00E94ED026091240170912501809126013F
S11307B09091270146E00E94ED02AFCF84B5806896
S11307C084BD84B5806284BD84B5836084BD85B5F1
S11307D0826085BDEEE6F0E08081866080830895C6
S11307E05F9A289808955A9A5C98089587E68093AA
S11307F0C40088E18093C1000895CF93C82F873047
S113080069F42091DB013091DC0147E050E061E0C4
S113081070E08BE191E00E9475070CC08A3019F4F6
S11308208DE00E94FD03E0ECF0E0808185FFFDCFC8
S1130830C093C60080E090E0CF9108956F927F92BC
S11308408F929F92AF92BF92CF92DF92EF92FF92DC
S11308500F931F93CF93DF932091990130919A01C5
S1130860232B09F0DAC08C010F2EF9E48F2EF1E06E
S11308709F2EF02DC0ECD0E00F2EF6ECCF2ED12C15
S1130880F02D54010F2EF8E46F2EF1E07F2EF02DA1
S113089088818823ECF7888184FDD2C0888183FD18
S11308A0D2C0F60180818D3011F08A3069F48AE07B
S11308B0F4018083B8010E94FD0389E491E09093E0
S11308C09A0180939901A9C0893039F090EE980F6C
S11308D09F3520F0803AB8F001C080E2F8E98F1625
S11308E0F1E09F0629F4B80187E00E94FD03D0CF10
S11308F074019FEFE91AF90AF4018083B8010E9498
S1130900FD034701C5CF8231D1F130F4833009F4BE
S11309109DC08830E9F0BCCF873129F08F37C1F012
S1130920853179F0B5CFF9E48F16F1E09F0609F02F
S113093008F4AECFF40131978081803209F052C0BF
S1130940A7CF89E4881681E0980609F098F5A0CF2E
S113095099E4891691E0990609F008F499CFB80151
S113096088E00E94FD03B80180E20E94FD03B80103
S113097088E00E94FD03E1E08E1A910889CFB80156
S11309808DE00E94FD03F9E48F16F1E09F0609F063
S113099008F47ECF0F2EF9E4EF2EF1E0FF2EF02DB8
S11309A0B801F70181917F010E94FD038E149F0419
S11309B0B9F76ECFB80188E00E94FD03B80180E268
S11309C00E94FD03B80188E00E94FD03F1E08F1A44
S11309D0910889E4881681E0980661F7F30131965D
S11309E04F0156CF7401F1E0EF1AF108B80188E025
S11309F00E94FD03B80180E20E94FD03B80188E073
S1130A000E94FD034701EA14FB0409F441CFF701F6
S1130A1082917F01803251F73BCFE0919901F091AF
S1130A209A01CF01019690939A0180939901808154
S1130A308A3021F410929A011092990190E008C032
S1130A408EEF9FEF05C08FEF9FEF02C08FEF9FEFF8
S1130A50DF91CF911F910F91FF90EF90DF90CF9096
S1130A60BF90AF909F908F907F906F900895505853
S1130A70BB27AA270E944F050C94C9060E94BB06F7
S1130A8038F00E94C20620F039F49F3F19F426F48E
S1130A900C94B8060EF4E095E7FB0C94B206E92F2B
S1130AA00E94DA0658F3BA1762077307840795079A
S1130AB020F079F4A6F50C94FC060EF4E0950B2EC8
S1130AC0BA2FA02D0B01B90190010C01CA01A0019C
S1130AD01124FF27591B99F0593F50F4503E68F1F7
S1130AE01A16F040A22F232F342F4427585FF3CF38
S1130AF0469537952795A795F0405395C9F77EF409
S1130B001F16BA0B620B730B840BBAF09150A1F051
S1130B10FF0FBB1F661F771F881FC2F70EC0BA0FD7
S1130B20621F731F841F48F4879577956795B7955F
S1130B30F7959E3F08F0B0CF9395880F08F099275A
S1130B40EE0F9795879508950E948E0608F481E02C
S1130B5008950E94BD050C94C9060E94C20658F06F
S1130B600E94BB0640F029F45F3F29F00C94B206C2
S1130B7051110C94FD060C94B8060E94DA0668F331
S1130B809923B1F3552391F3951B550BBB27AA2742
S1130B9062177307840738F09F5F5F4F220F331F7C
S1130BA0441FAA1FA9F335D00E2E3AF0E0E832D044
S1130BB091505040E695001CCAF72BD0FE2F29D047
S1130BC0660F771F881FBB1F261737074807AB0719
S1130BD0B0E809F0BB0B802DBF01FF2793585F4F8E
S1130BE03AF09E3F510578F00C94B2060C94FD0641
S1130BF05F3FE4F3983ED4F3869577956795B79570
S1130C00F7959F5FC9F7880F911D9695879597F97A
S1130C100895E1E0660F771F881FBB1F62177307F3
S1130C208407BA0720F0621B730B840BBA0BEE1F08
S1130C3088F7E09508950E9422066894B1110C94F7
S1130C40FD0608950E94E20688F09F5798F0B92F98
S1130C509927B751B0F0E1F0660F771F881F991FED
S1130C601AF0BA95C9F714C0B13091F00E94FC068D
S1130C70B1E008950C94FC06672F782F8827B85F9D
S1130C8039F0B93FCCF3869577956795B395D9F745
S1130C903EF490958095709561957F4F8F4F9F4F4F
S1130CA00895E89409C097FB3EF49095809570955B
S1130CB061957F4F8F4F9F4F9923A9F0F92F96E9A4
S1130CC0BB279395F695879577956795B795F11119
S1130CD0F8CFFAF4BB0F11F460FF1BC06F5F7F4FB6
S1130CE08F4F9F4F16C0882311F096E911C07723C8
S1130CF021F09EE8872F762F05C0662371F096E8D1
S1130D00862F70E060E02AF09A95660F771F881F9F
S1130D10DAF7880F9695879597F90895990F000843
S1130D20550FAA0BE0E8FEEF16161706E807F907B9
S1130D30C0F012161306E407F50798F0621B730B54
S1130D40840B950B39F40A2661F0232B242B252BD5
S1130D5021F408950A2609F4A140A6958FEF811D78
S1130D60811D089597F99F6780E870E060E0089519
S1130D709FEF80EC089500240A94161617061806AF
S1130D800906089500240A9412161306140605068B
S1130D900895092E0394000C11F4882352F0BB0F1C
S1130DA040F4BF2B11F460FF04C06F5F7F4F8F4F7F
S1130DB09F4F089557FD9058440F551F59F05F3FBA
S1130DC071F04795880F97FB991F61F09F3F79F069
S1130DD087950895121613061406551FF2CF4695EB
S1130DE0F1DF08C0161617061806991FF1CF86956D
S1130DF07105610508940895E894BB276627772751
S1130E00CB0197F908950E948E0608F48FEF089598
S1130E100E941B070C94C9060E94BB0638F00E946E
S1130E20C20620F0952311F00C94B2060C94B80677
S1130E3011240C94FD060E94DA0670F3959FC1F309
S1130E40950F50E0551F629FF001729FBB27F00D74
S1130E50B11D639FAA27F00DB11DAA1F649F6627C9
S1130E60B00DA11D661F829F2227B00DA11D621F18
S1130E70739FB00DA11D621F839FA00D611D221FD2
S1130E80749F3327A00D611D231F849F600D211DB6
S1130E90822F762F6A2F11249F5750409AF0F1F039
S1130EA088234AF0EE0FFF1FBB1F661F771F881FA2
S1130EB091505040A9F79E3F510580F00C94B20622
S1130EC00C94FD065F3FE4F3983ED4F38695779542
S1130ED06795B795F795E7959F5FC1F7FE2B880F48
S1130EE0911D9695879597F90895A0E0B0E0EBE7FA
S1130EF0F7E00C94AF075B014A017901D90113961D
S1130F002C9121FF1DC0C0E0D0E0C815D905D9F04F
S1130F108C016C01CA0CDB1CC8010C151D0571F099
S1130F200F5F1F4FD7011896ED91FC911997B701E8
S1130F30DC018C910995892B79F305C02196E5CFC5
S1130F4080E090E001C0CE01CDB7DEB7ECE00C94B8
S1130F50CB072F923F924F925F926F927F928F9224
S1130F609F92AF92BF92CF92DF92EF92FF920F9334
S1130F701F93CF93DF93CDB7DEB7CA1BDB0B0FB63E
S1130F80F894DEBF0FBECDBF09942A8839884888FB
S1130F905F846E847D848C849B84AA84B984C88491
S1130FA0DF80EE80FD800C811B81AA81B981CE0F88
S1130FB0D11D0FB6F894DEBF0FBECDBFED0108956D
S1070FC0F894FFCFCF
S1130FC40000A042EC51B83D00002A440000000394
S1130FD400000000FD031E040000012A72696E670C
S1070FE42A0A0000D1
S9030000FC
