:100000000C9434000C9451000C9451000C94510049
:100010000C9451000C9451000C9451000C9451001C
:100020000C9451000C9451000C9451000C948800D5
:100030000C9451000C9451000C949E000C94AD0053
:100040000C9451000C9451000C9451000C945100EC
:100050000C9451000C9451000C9451000C945100DC
:100060000C9451000C94510011241FBECFEFD8E026
:10007000DEBFCDBF11E0A0E0B1E0EAE2FBE002C0EC
:1000800005900D92AC32B107D9F721E0ACE2B1E0B6
:1000900001C01D92A43CB207E1F70E94C5000C9478
:1000A00093050C94000078948AB184638AB984B172
:1000B000806C84B9209A0E944401EEEBF1E080E06C
:1000C00091E0958384839383828391838083EAE79D
:1000D000F0E0808187608083808180688083ECE7A6
:1000E000F0E080818064808389E698E190938900C4
:1000F00080938800E1E8F0E08081836080838081E4
:1001000088608083EFE6F0E08081826080830895DC
:100110001F920F920FB60F9211248F9380912D0191
:100120008F5F80932D0180912C018F5F80932C0134
:100130008F910F900FBE0F901F9018951F920F92E6
:100140000FB60F9211248F938091BB0187BD8F91C1
:100150000F900FBE0F901F9018951F920F920FB621
:100160000F9211248F938091830188BD8F910F90FE
:100170000FBE0F901F901895EAE7F0E08081806431
:100180008083808186FDFDCF08950E9453000F2E4D
:10019000FCE78F2E912CF02D0F2EF8E7AF2EB12C0F
:1001A000F02D0F2EF9E7CF2ED12CF02D0F2EFEE0E3
:1001B000EF2EF1E0FF2EF02DCEEBD1E00F2EF6E08A
:1001C0007F2EF02D08E111E0F4011082808180641F
:1001D00080830E94BC00F501808190E09093B8017B
:1001E0008093B701F60120818091B7019091B80109
:1001F000922B9093B8018093B7018091B7019091B1
:10020000B8019F938F93FF92EF928B818F938A8196
:100210008F930E948502F4017082808180648083C4
:100220000E94BC00F501808190E09093B80180931A
:10023000B701F60120818091B7019091B801922B0E
:100240009093B8018093B7018091B7019091B80164
:100250009F938F931F930F938B818F938A818F939B
:100260000E948502FFEF21EE84E0F15020408040A3
:10027000E1F700C00000EDB7FEB73C960FB6F8946A
:10028000FEBF0FBEEDBFA0CF87E68093C40088E11C
:100290008093C1000895CF93C82F873069F42091CF
:1002A000C2013091C30147E050E061E070E084E2B8
:1002B00091E00E9497020CC08A3019F48DE00E94F0
:1002C0004B01E0ECF0E0808185FFFDCFC093C600DC
:1002D00080E090E0CF9108956F927F928F929F92ED
:1002E000AF92BF92CF92DF92EF92FF920F931F9344
:1002F000CF93DF9320917E0130917F01232B09F072
:10030000DAC08C010F2EFEE28F2EF1E09F2EF02D31
:10031000C0ECD0E00F2EF6ECCF2ED12CF02D5401F6
:100320000F2EFDE26F2EF1E07F2EF02D88818823C5
:10033000ECF7888184FDD2C0888183FDD2C0F601AC
:1003400080818D3011F08A3069F48AE0F401808375
:10035000B8010E944B018EE291E090937F0180935F
:100360007E01A9C0893039F090EE980F9F3520F0BA
:10037000803AB8F001C080E2FDE78F16F1E09F06F9
:1003800029F4B80187E00E944B01D0CF74019FEFA0
:10039000E91AF90AF4018083B8010E944B01470170
:1003A000C5CF8231D1F130F4833009F49DC088305B
:1003B000E9F0BCCF873129F08F37C1F0853179F072
:1003C000B5CFFEE28F16F1E09F0609F008F4AECF3C
:1003D000F40131978081803209F052C0A7CF8EE2BC
:1003E000881681E0980609F098F5A0CF9EE289165C
:1003F00091E0990609F008F499CFB80188E00E94CD
:100400004B01B80180E20E944B01B80188E00E94D4
:100410004B01E1E08E1A910889CFB8018DE00E946E
:100420004B01FEE28F16F1E09F0609F008F47ECF43
:100430000F2EFEE2EF2EF1E0FF2EF02DB801F701B6
:1004400081917F010E944B018E149F04B9F76ECFFA
:10045000B80188E00E944B01B80180E20E944B0184
:10046000B80188E00E944B01F1E08F1A91088EE2FA
:10047000881681E0980661F7F30131964F0156CF57
:100480007401F1E0EF1AF108B80188E00E944B0115
:10049000B80180E20E944B01B80188E00E944B0144
:1004A0004701EA14FB0409F441CFF70182917F016F
:1004B000803251F73BCFE0917E01F0917F01CF0177
:1004C000019690937F0180937E0180818A3021F490
:1004D00010927F0110927E0190E008C08EEF9FEF96
:1004E00005C08FEF9FEF02C08FEF9FEFDF91CF919D
:1004F0001F910F91FF90EF90DF90CF90BF90AF9042
:100500009F908F907F906F900895A0E0B0E0EBE80F
:10051000F2E00C946C05AE01475F5F4F6F81788508
:100520008D819E810E94CB02E2E00C948805A0E0C0
:10053000B0E0EDE9F2E00C9462055B014A0179015B
:10054000D90113962C9121FF1DC0C0E0D0E0C81541
:10055000D905D9F08C016C01CA0CDB1CC8010C1543
:100560001D0571F00F5F1F4FD7011896ED91FC919B
:100570001997B701DC018C910995892B79F305C096
:100580002196E5CF80E090E001C0CE01CDB7DEB787
:10059000ECE00C947E05ABE0B0E0E1EDF2E00C9411
:1005A0005C056C017B018A01FC0117821682838144
:1005B00081FFCCC1CE0101963C01F6019381F70188
:1005C00093FD859193FF81917F01882309F4BAC13E
:1005D000853239F493FD859193FF81917F018532B6
:1005E00029F4B60190E00E94C204E7CF912C212C9F
:1005F000312CFFE1F315D8F08B3279F038F48032EA
:1006000079F08332A1F4232D20611DC08D3261F079
:10061000803369F4232D216016C0832D8260382E2B
:10062000E32DE4603E2E2AC0F32DF8601DC037FC98
:100630002DC020ED280F2A3040F08E32B9F436FC60
:1006400081C1232D2064322E19C036FE06C08AE0F7
:10065000989E200D1124922E11C0EAE02E9E200DAE
:100660001124222EF32DF0623F2E08C08C3621F487
:10067000832D8068382E02C0883641F4F70193FD3F
:10068000859193FF81917F018111B3CF982F9F7D39
:100690009554933028F40C5F1F4F9FE399830DC04E
:1006A000833631F0833771F0833509F059C021C0AA
:1006B000F801808189830E5F1F4F88248394912CD9
:1006C000530113C02801F2E04F0E511CF801A08025
:1006D000B18036FE03C0692D70E002C06FEF7FEF7E
:1006E000C5010E94B7044C018201F32DFF773F2E14
:1006F00016C0280122E0420E511CF801A080B180F2
:1007000036FE03C0692D70E002C06FEF7FEFC501B8
:100710000E94AC044C01F32DF0683F2E820133FCA3
:100720001BC0822D90E088169906B0F4B60180E2D5
:1007300090E00E94C2042A94F4CFF50137FC859121
:1007400037FE81915F01B60190E00E94C204211042
:100750002A9421E0821A91088114910471F7E8C06B
:10076000843611F0893641F5F80137FE07C0608103
:100770007181828193810C5F1F4F08C060817181FC
:10078000072E000C880B990B0E5F1F4FF32DFF7681
:100790003F2E97FF09C090958095709561957F4F8A
:1007A0008F4F9F4FF0683F2E2AE030E0A3010E9458
:1007B000FE04882E861845C0853731F4232D2F7E00
:1007C000B22E2AE030E025C0932D997FB92E8F36C6
:1007D000C1F018F4883579F0B5C0803719F0883742
:1007E00021F0B0C0E92FE061BE2EB4FE0DC0FB2D9C
:1007F000F460BF2E09C034FE0AC0292F2660B22E35
:1008000006C028E030E005C020E130E002C020E171
:1008100032E0F801B7FE07C0608171818281938167
:100820000C5F1F4F06C06081718180E090E00E5F19
:100830001F4FA3010E94FE04882E8618FB2DFF7710
:100840003F2E36FE0DC0232D2E7FA22E891458F484
:1008500034FE0BC032FC09C0832D8E7EA82E05C04D
:10086000B82CA32C03C0B82C01C0B92CA4FE0FC017
:10087000FE01E80DF11D8081803321F49A2D997ECF
:10088000A92E09C0A2FE06C0B394B39404C08A2D59
:10089000867809F0B394A3FC11C0A0FE06C0B21480
:1008A00088F4280C922C9B180EC0B21460F4B60188
:1008B00080E290E00E94C204B394F7CFB21418F41F
:1008C0002B1802C0982C212CA4FE10C0B60180E386
:1008D00090E00E94C204A2FE17C0A1FC03C088E7FA
:1008E00090E002C088E590E0B6010CC08A2D8678C1
:1008F00059F0A1FE02C08BE201C080E2A7FC8DE2AC
:10090000B60190E00E94C204891438F4B60180E375
:1009100090E00E94C2049A94F7CF8A94F301E80D04
:10092000F11D8081B60190E00E94C2048110F5CFD4
:10093000222009F442CEB60180E290E00E94C20477
:100940002A94F6CFF6018681978102C08FEF9FEF40
:100950002B96E2E10C947805FC0105906150704003
:100960000110D8F7809590958E0F9F1F0895FC0178
:100970006150704001900110D8F7809590958E0FCE
:100980009F1F08950F931F93CF93DF93FB01238144
:1009900021FD03C08FEF9FEF2CC022FF16C04681C0
:1009A0005781248135814217530744F4A081B181D6
:1009B0009D012F5F3F4F318320838C9326813781A8
:1009C0002F5F3F4F3783268314C08B01EC01FB015F
:1009D0000084F185E02D0995892BE1F6D801169662
:1009E0008D919C911797019617969C938E931697CD
:1009F000CE01DF91CF911F910F910895FA01AA279F
:100A0000283051F1203181F1E8946F936E7F6E5F51
:100A10007F4F8F4F9F4FAF4FB1E03ED0B4E03CD0FF
:100A2000670F781F891F9A1FA11D680F791F8A1FE2
:100A3000911DA11D6A0F711D811D911DA11D20D049
:100A400009F468943F912AE0269F11243019305D03
:100A50003193DEF6CF010895462F4770405D4193F4
:100A6000B3E00FD0C9F7F6CF462F4F70405D4A3341
:100A700018F0495D31FD4052419302D0A9F7EACF09
:100A8000B4E0A6959795879577956795BA95C9F738
:100A900000976105710508959B01AC010A2E06942B
:100AA0005795479537952795BA95C9F7620F731FE4
:100AB000841F951FA01D08952F923F924F925F9221
:100AC0006F927F928F929F92AF92BF92CF92DF925E
:100AD000EF92FF920F931F93CF93DF93CDB7DEB7C3
:100AE000CA1BDB0B0FB6F894DEBF0FBECDBF099457
:100AF0002A88398848885F846E847D848C849B84AE
:100B0000AA84B984C884DF80EE80FD800C811B81BB
:100B1000AA81B981CE0FD11D0FB6F894DEBF0FBEEA
:0A0B2000CDBFED010895F894FFCF5A
:100B2A0000000003000000004B016C0100004C654E
:100B3A0066743A2025640A0043656E7465723A2029
:0C0B4A0025640A002A72696E672A0A00FE
:00000001FF
